{
  "_format": "hh-sol-artifact-1",
  "contractName": "FundingDAO",
  "sourceName": "contracts/FundingDao.sol",
  "abi": [
    {
      "inputs": [],
      "stateMutability": "nonpayable",
      "type": "constructor"
    },
    {
      "anonymous": false,
      "inputs": [
        {
          "indexed": true,
          "internalType": "address",
          "name": "fromAddress",
          "type": "address"
        },
        {
          "indexed": false,
          "internalType": "uint256",
          "name": "amount",
          "type": "uint256"
        }
      ],
      "name": "NewMember",
      "type": "event"
    },
    {
      "anonymous": false,
      "inputs": [
        {
          "indexed": true,
          "internalType": "address",
          "name": "proposer",
          "type": "address"
        },
        {
          "indexed": false,
          "internalType": "uint256",
          "name": "amount",
          "type": "uint256"
        }
      ],
      "name": "NewProposal",
      "type": "event"
    },
    {
      "anonymous": false,
      "inputs": [
        {
          "indexed": true,
          "internalType": "address",
          "name": "stakeholder",
          "type": "address"
        },
        {
          "indexed": true,
          "internalType": "address",
          "name": "projectAddress",
          "type": "address"
        },
        {
          "indexed": false,
          "internalType": "uint256",
          "name": "amount",
          "type": "uint256"
        }
      ],
      "name": "Payment",
      "type": "event"
    },
    {
      "inputs": [
        {
          "internalType": "string",
          "name": "title",
          "type": "string"
        },
        {
          "internalType": "string",
          "name": "desc",
          "type": "string"
        },
        {
          "internalType": "address",
          "name": "receiverAddress",
          "type": "address"
        },
        {
          "internalType": "uint256",
          "name": "amount",
          "type": "uint256"
        }
      ],
      "name": "createProposal",
      "outputs": [],
      "stateMutability": "nonpayable",
      "type": "function"
    },
    {
      "inputs": [],
      "name": "createStakeholder",
      "outputs": [],
      "stateMutability": "payable",
      "type": "function"
    },
    {
      "inputs": [],
      "name": "getAllProposals",
      "outputs": [
        {
          "components": [
            {
              "internalType": "uint256",
              "name": "id",
              "type": "uint256"
            },
            {
              "internalType": "uint256",
              "name": "amount",
              "type": "uint256"
            },
            {
              "internalType": "uint256",
              "name": "livePeriod",
              "type": "uint256"
            },
            {
              "internalType": "uint256",
              "name": "voteInFavor",
              "type": "uint256"
            },
            {
              "internalType": "uint256",
              "name": "voteAgainst",
              "type": "uint256"
            },
            {
              "internalType": "string",
              "name": "title",
              "type": "string"
            },
            {
              "internalType": "string",
              "name": "desc",
              "type": "string"
            },
            {
              "internalType": "bool",
              "name": "isCompleted",
              "type": "bool"
            },
            {
              "internalType": "bool",
              "name": "paid",
              "type": "bool"
            },
            {
              "internalType": "bool",
              "name": "isPaid",
              "type": "bool"
            },
            {
              "internalType": "address",
              "name": "receiverAddress",
              "type": "address"
            },
            {
              "internalType": "address",
              "name": "proposer",
              "type": "address"
            },
            {
              "internalType": "uint256",
              "name": "totalFundRaised",
              "type": "uint256"
            },
            {
              "components": [
                {
                  "internalType": "address",
                  "name": "payer",
                  "type": "address"
                },
                {
                  "internalType": "uint256",
                  "name": "amount",
                  "type": "uint256"
                },
                {
                  "internalType": "uint256",
                  "name": "timestamp",
                  "type": "uint256"
                }
              ],
              "internalType": "struct FundingDAO.Funding[]",
              "name": "funders",
              "type": "tuple[]"
            }
          ],
          "internalType": "struct FundingDAO.Proposal[]",
          "name": "",
          "type": "tuple[]"
        }
      ],
      "stateMutability": "view",
      "type": "function"
    },
    {
      "inputs": [],
      "name": "getMemberBal",
      "outputs": [
        {
          "internalType": "uint256",
          "name": "",
          "type": "uint256"
        }
      ],
      "stateMutability": "view",
      "type": "function"
    },
    {
      "inputs": [
        {
          "internalType": "uint256",
          "name": "proposalId",
          "type": "uint256"
        }
      ],
      "name": "getProposal",
      "outputs": [
        {
          "components": [
            {
              "internalType": "uint256",
              "name": "id",
              "type": "uint256"
            },
            {
              "internalType": "uint256",
              "name": "amount",
              "type": "uint256"
            },
            {
              "internalType": "uint256",
              "name": "livePeriod",
              "type": "uint256"
            },
            {
              "internalType": "uint256",
              "name": "voteInFavor",
              "type": "uint256"
            },
            {
              "internalType": "uint256",
              "name": "voteAgainst",
              "type": "uint256"
            },
            {
              "internalType": "string",
              "name": "title",
              "type": "string"
            },
            {
              "internalType": "string",
              "name": "desc",
              "type": "string"
            },
            {
              "internalType": "bool",
              "name": "isCompleted",
              "type": "bool"
            },
            {
              "internalType": "bool",
              "name": "paid",
              "type": "bool"
            },
            {
              "internalType": "bool",
              "name": "isPaid",
              "type": "bool"
            },
            {
              "internalType": "address",
              "name": "receiverAddress",
              "type": "address"
            },
            {
              "internalType": "address",
              "name": "proposer",
              "type": "address"
            },
            {
              "internalType": "uint256",
              "name": "totalFundRaised",
              "type": "uint256"
            },
            {
              "components": [
                {
                  "internalType": "address",
                  "name": "payer",
                  "type": "address"
                },
                {
                  "internalType": "uint256",
                  "name": "amount",
                  "type": "uint256"
                },
                {
                  "internalType": "uint256",
                  "name": "timestamp",
                  "type": "uint256"
                }
              ],
              "internalType": "struct FundingDAO.Funding[]",
              "name": "funders",
              "type": "tuple[]"
            }
          ],
          "internalType": "struct FundingDAO.Proposal",
          "name": "",
          "type": "tuple"
        }
      ],
      "stateMutability": "view",
      "type": "function"
    },
    {
      "inputs": [],
      "name": "getStakeholderBal",
      "outputs": [
        {
          "internalType": "uint256",
          "name": "",
          "type": "uint256"
        }
      ],
      "stateMutability": "view",
      "type": "function"
    },
    {
      "inputs": [],
      "name": "getVotes",
      "outputs": [
        {
          "internalType": "uint256[]",
          "name": "",
          "type": "uint256[]"
        }
      ],
      "stateMutability": "view",
      "type": "function"
    },
    {
      "inputs": [],
      "name": "proposalsCount",
      "outputs": [
        {
          "internalType": "uint256",
          "name": "",
          "type": "uint256"
        }
      ],
      "stateMutability": "view",
      "type": "function"
    },
    {
      "inputs": [
        {
          "internalType": "uint256",
          "name": "proposalId",
          "type": "uint256"
        },
        {
          "internalType": "uint256",
          "name": "fundAmount",
          "type": "uint256"
        }
      ],
      "name": "provideFunds",
      "outputs": [],
      "stateMutability": "payable",
      "type": "function"
    },
    {
      "inputs": [
        {
          "internalType": "uint256",
          "name": "proposalId",
          "type": "uint256"
        }
      ],
      "name": "releaseFunding",
      "outputs": [],
      "stateMutability": "payable",
      "type": "function"
    },
    {
      "inputs": [
        {
          "internalType": "uint256",
          "name": "proposalId",
          "type": "uint256"
        },
        {
          "internalType": "bool",
          "name": "inFavour",
          "type": "bool"
        }
      ],
      "name": "vote",
      "outputs": [],
      "stateMutability": "nonpayable",
      "type": "function"
    },
    {
      "inputs": [],
      "name": "votingPeriod",
      "outputs": [
        {
          "internalType": "uint32",
          "name": "",
          "type": "uint32"
        }
      ],
      "stateMutability": "view",
      "type": "function"
    }
  ],
  "bytecode": "0x60806040526202a3006000806101000a81548163ffffffff021916908363ffffffff160217905550600060015534801561003857600080fd5b506001600660003373ffffffffffffffffffffffffffffffffffffffff1673ffffffffffffffffffffffffffffffffffffffff16815260200190815260200160002060006101000a81548160ff0219169083151502179055506001600560003373ffffffffffffffffffffffffffffffffffffffff1673ffffffffffffffffffffffffffffffffffffffff16815260200190815260200160002060006101000a81548160ff0219169083151502179055506101f4600460003373ffffffffffffffffffffffffffffffffffffffff1673ffffffffffffffffffffffffffffffffffffffff168152602001908152602001600020819055506101f4600360003373ffffffffffffffffffffffffffffffffffffffff1673ffffffffffffffffffffffffffffffffffffffff1681526020019081526020016000208190555061258c806101846000396000f3fe6080604052600436106100a75760003560e01c80638bc3b92b116100645780638bc3b92b146101ac578063b3bcf752146101c8578063c7f758a8146101e4578063c9d27afe14610221578063cceb68f51461024a578063f8d41b9614610275576100a7565b806302a251a3146100ac5780630a9f46ad146100d75780630d2e57ee146101025780630dc960151461012d5780636dd8cdd2146101585780637cdc2eb714610183575b600080fd5b3480156100b857600080fd5b506100c161027f565b6040516100ce9190612253565b60405180910390f35b3480156100e357600080fd5b506100ec610293565b6040516100f99190612238565b60405180910390f35b34801561010e57600080fd5b50610117610299565b6040516101249190612238565b60405180910390f35b34801561013957600080fd5b50610142610336565b60405161014f9190612154565b60405180910390f35b34801561016457600080fd5b5061016d610421565b60405161017a9190612238565b60405180910390f35b34801561018f57600080fd5b506101aa60048036038101906101a59190611991565b6104be565b005b6101c660048036038101906101c19190611a91565b6106c6565b005b6101e260048036038101906101dd9190611a2c565b610921565b005b3480156101f057600080fd5b5061020b60048036038101906102069190611a2c565b610a16565b6040516102189190612216565b60405180910390f35b34801561022d57600080fd5b5061024860048036038101906102439190611a55565b610d6a565b005b34801561025657600080fd5b5061025f611029565b60405161026c9190612132565b60405180910390f35b61027d61145c565b005b60008054906101000a900463ffffffff1681565b60015481565b6000600560003373ffffffffffffffffffffffffffffffffffffffff1673ffffffffffffffffffffffffffffffffffffffff16815260200190815260200160002060009054906101000a900460ff166102f157600080fd5b600460003373ffffffffffffffffffffffffffffffffffffffff1673ffffffffffffffffffffffffffffffffffffffff16815260200190815260200160002054905090565b6060600660003373ffffffffffffffffffffffffffffffffffffffff1673ffffffffffffffffffffffffffffffffffffffff16815260200190815260200160002060009054906101000a900460ff1661038e57600080fd5b600760003373ffffffffffffffffffffffffffffffffffffffff1673ffffffffffffffffffffffffffffffffffffffff16815260200190815260200160002080548060200260200160405190810160405280929190818152602001828054801561041757602002820191906000526020600020905b815481526020019060010190808311610403575b5050505050905090565b6000600660003373ffffffffffffffffffffffffffffffffffffffff1673ffffffffffffffffffffffffffffffffffffffff16815260200190815260200160002060009054906101000a900460ff1661047957600080fd5b600360003373ffffffffffffffffffffffffffffffffffffffff1673ffffffffffffffffffffffffffffffffffffffff16815260200190815260200160002054905090565b600560003373ffffffffffffffffffffffffffffffffffffffff1673ffffffffffffffffffffffffffffffffffffffff16815260200190815260200160002060009054906101000a900460ff1661051457600080fd5b600060015490506000600260008381526020019081526020016000209050818160000181905550858582600601919061054e9291906117c4565b5087878260050191906105629291906117c4565b50838160070160036101000a81548173ffffffffffffffffffffffffffffffffffffffff021916908373ffffffffffffffffffffffffffffffffffffffff160217905550338160080160006101000a81548173ffffffffffffffffffffffffffffffffffffffff021916908373ffffffffffffffffffffffffffffffffffffffff16021790555082816001018190555060008054906101000a900463ffffffff1663ffffffff16426106149190612346565b816002018190555060008160070160026101000a81548160ff02191690831515021790555060008160070160006101000a81548160ff0219169083151502179055506001600081548092919061066990612459565b91905055503373ffffffffffffffffffffffffffffffffffffffff167f8dfa4a39b973cacc42c5d14d9461d66fd1fda5ea696f7d2a3c44fd9d7f11d04f846040516106b49190612238565b60405180910390a25050505050505050565b600660003373ffffffffffffffffffffffffffffffffffffffff1673ffffffffffffffffffffffffffffffffffffffff16815260200190815260200160002060009054906101000a900460ff1661071c57600080fd5b60006002600084815260200190815260200160002090508060070160029054906101000a900460ff1615610785576040517f08c379a000000000000000000000000000000000000000000000000000000000815260040161077c906121b6565b60405180910390fd5b80600401548160030154116107cf576040517f08c379a00000000000000000000000000000000000000000000000000000000081526004016107c6906121d6565b60405180910390fd5b8060010154816009015410610819576040517f08c379a0000000000000000000000000000000000000000000000000000000008152600401610810906121b6565b60405180910390fd5b8181600901600082825461082d9190612346565b9250508190555080600a0160405180606001604052803373ffffffffffffffffffffffffffffffffffffffff16815260200184815260200142815250908060018154018082558091505060019003906000526020600020906003020160009091909190915060008201518160000160006101000a81548173ffffffffffffffffffffffffffffffffffffffff021916908373ffffffffffffffffffffffffffffffffffffffff16021790555060208201518160010155604082015181600201555050806001015481600901541061091c5760018160070160006101000a81548160ff0219169083151502179055505b505050565b600660003373ffffffffffffffffffffffffffffffffffffffff1673ffffffffffffffffffffffffffffffffffffffff16815260200190815260200160002060009054906101000a900460ff1661097757600080fd5b600060026000838152602001908152602001600020905080600101548160090154116109d8576040517f08c379a00000000000000000000000000000000000000000000000000000000081526004016109cf90612196565b60405180910390fd5b60018160070160026101000a81548160ff02191690831515021790555060018160070160006101000a81548160ff0219169083151502179055505050565b610a1e61184a565b60026000838152602001908152602001600020604051806101c00160405290816000820154815260200160018201548152602001600282015481526020016003820154815260200160048201548152602001600582018054610a7f90612427565b80601f0160208091040260200160405190810160405280929190818152602001828054610aab90612427565b8015610af85780601f10610acd57610100808354040283529160200191610af8565b820191906000526020600020905b815481529060010190602001808311610adb57829003601f168201915b50505050508152602001600682018054610b1190612427565b80601f0160208091040260200160405190810160405280929190818152602001828054610b3d90612427565b8015610b8a5780601f10610b5f57610100808354040283529160200191610b8a565b820191906000526020600020905b815481529060010190602001808311610b6d57829003601f168201915b505050505081526020016007820160009054906101000a900460ff161515151581526020016007820160019054906101000a900460ff161515151581526020016007820160029054906101000a900460ff161515151581526020016007820160039054906101000a900473ffffffffffffffffffffffffffffffffffffffff1673ffffffffffffffffffffffffffffffffffffffff1673ffffffffffffffffffffffffffffffffffffffff1681526020016008820160009054906101000a900473ffffffffffffffffffffffffffffffffffffffff1673ffffffffffffffffffffffffffffffffffffffff1673ffffffffffffffffffffffffffffffffffffffff16815260200160098201548152602001600a8201805480602002602001604051908101604052809291908181526020016000905b82821015610d5b57838290600052602060002090600302016040518060600160405290816000820160009054906101000a900473ffffffffffffffffffffffffffffffffffffffff1673ffffffffffffffffffffffffffffffffffffffff1673ffffffffffffffffffffffffffffffffffffffff1681526020016001820154815260200160028201548152505081526020019060010190610cbf565b50505050815250509050919050565b600660003373ffffffffffffffffffffffffffffffffffffffff1673ffffffffffffffffffffffffffffffffffffffff16815260200190815260200160002060009054906101000a900460ff16610dc057600080fd5b60006002600084815260200190815260200160002090508060070160009054906101000a900460ff1680610df8575042816002015411155b15610e555760018160070160006101000a81548160ff0219169083151502179055506040517f08c379a0000000000000000000000000000000000000000000000000000000008152600401610e4c90612176565b60405180910390fd5b60005b600760003373ffffffffffffffffffffffffffffffffffffffff1673ffffffffffffffffffffffffffffffffffffffff16815260200190815260200160002080549050811015610f7d57600760003373ffffffffffffffffffffffffffffffffffffffff1673ffffffffffffffffffffffffffffffffffffffff1681526020019081526020016000208181548110610f19577f4e487b7100000000000000000000000000000000000000000000000000000000600052603260045260246000fd5b906000526020600020015482600001541415610f6a576040517f08c379a0000000000000000000000000000000000000000000000000000000008152600401610f61906121f6565b60405180910390fd5b8080610f7590612459565b915050610e58565b508115610fa357806003016000815480929190610f9990612459565b9190505550610fbe565b806004016000815480929190610fb890612459565b91905055505b600760003373ffffffffffffffffffffffffffffffffffffffff1673ffffffffffffffffffffffffffffffffffffffff168152602001908152602001600020839080600181540180825580915050600190039060005260206000200160009091909190915055505050565b6060600060015467ffffffffffffffff81111561106f577f4e487b7100000000000000000000000000000000000000000000000000000000600052604160045260246000fd5b6040519080825280602002602001820160405280156110a857816020015b61109561184a565b81526020019060019003908161108d5790505b50905060005b6001548110156114545760026000828152602001908152602001600020604051806101c0016040529081600082015481526020016001820154815260200160028201548152602001600382015481526020016004820154815260200160058201805461111990612427565b80601f016020809104026020016040519081016040528092919081815260200182805461114590612427565b80156111925780601f1061116757610100808354040283529160200191611192565b820191906000526020600020905b81548152906001019060200180831161117557829003601f168201915b505050505081526020016006820180546111ab90612427565b80601f01602080910402602001604051908101604052809291908181526020018280546111d790612427565b80156112245780601f106111f957610100808354040283529160200191611224565b820191906000526020600020905b81548152906001019060200180831161120757829003601f168201915b505050505081526020016007820160009054906101000a900460ff161515151581526020016007820160019054906101000a900460ff161515151581526020016007820160029054906101000a900460ff161515151581526020016007820160039054906101000a900473ffffffffffffffffffffffffffffffffffffffff1673ffffffffffffffffffffffffffffffffffffffff1673ffffffffffffffffffffffffffffffffffffffff1681526020016008820160009054906101000a900473ffffffffffffffffffffffffffffffffffffffff1673ffffffffffffffffffffffffffffffffffffffff1673ffffffffffffffffffffffffffffffffffffffff16815260200160098201548152602001600a8201805480602002602001604051908101604052809291908181526020016000905b828210156113f557838290600052602060002090600302016040518060600160405290816000820160009054906101000a900473ffffffffffffffffffffffffffffffffffffffff1673ffffffffffffffffffffffffffffffffffffffff1673ffffffffffffffffffffffffffffffffffffffff1681526020016001820154815260200160028201548152505081526020019060010190611359565b5050505081525050828281518110611436577f4e487b7100000000000000000000000000000000000000000000000000000000600052603260045260246000fd5b6020026020010181905250808061144c90612459565b9150506110ae565b508091505090565b6000349050600660003373ffffffffffffffffffffffffffffffffffffffff1673ffffffffffffffffffffffffffffffffffffffff16815260200190815260200160002060009054906101000a900460ff1661171457600081600460003373ffffffffffffffffffffffffffffffffffffffff1673ffffffffffffffffffffffffffffffffffffffff168152602001908152602001600020546114ff9190612346565b9050671bc16d674ec80000811061165f576001600660003373ffffffffffffffffffffffffffffffffffffffff1673ffffffffffffffffffffffffffffffffffffffff16815260200190815260200160002060006101000a81548160ff0219169083151502179055506001600560003373ffffffffffffffffffffffffffffffffffffffff1673ffffffffffffffffffffffffffffffffffffffff16815260200190815260200160002060006101000a81548160ff02191690831515021790555080600360003373ffffffffffffffffffffffffffffffffffffffff1673ffffffffffffffffffffffffffffffffffffffff1681526020019081526020016000208190555081600460003373ffffffffffffffffffffffffffffffffffffffff1673ffffffffffffffffffffffffffffffffffffffff16815260200190815260200160002060008282546116539190612346565b9250508190555061170e565b6001600560003373ffffffffffffffffffffffffffffffffffffffff1673ffffffffffffffffffffffffffffffffffffffff16815260200190815260200160002060006101000a81548160ff02191690831515021790555081600460003373ffffffffffffffffffffffffffffffffffffffff1673ffffffffffffffffffffffffffffffffffffffff16815260200190815260200160002060008282546117069190612346565b925050819055505b506117c1565b80600460003373ffffffffffffffffffffffffffffffffffffffff1673ffffffffffffffffffffffffffffffffffffffff16815260200190815260200160002060008282546117639190612346565b9250508190555080600360003373ffffffffffffffffffffffffffffffffffffffff1673ffffffffffffffffffffffffffffffffffffffff16815260200190815260200160002060008282546117b99190612346565b925050819055505b50565b8280546117d090612427565b90600052602060002090601f0160209004810192826117f25760008555611839565b82601f1061180b57803560ff1916838001178555611839565b82800160010185558215611839579182015b8281111561183857823582559160200191906001019061181d565b5b50905061184691906118eb565b5090565b604051806101c0016040528060008152602001600081526020016000815260200160008152602001600081526020016060815260200160608152602001600015158152602001600015158152602001600015158152602001600073ffffffffffffffffffffffffffffffffffffffff168152602001600073ffffffffffffffffffffffffffffffffffffffff16815260200160008152602001606081525090565b5b808211156119045760008160009055506001016118ec565b5090565b60008135905061191781612511565b92915050565b60008135905061192c81612528565b92915050565b60008083601f84011261194457600080fd5b8235905067ffffffffffffffff81111561195d57600080fd5b60208301915083600182028301111561197557600080fd5b9250929050565b60008135905061198b8161253f565b92915050565b600080600080600080608087890312156119aa57600080fd5b600087013567ffffffffffffffff8111156119c457600080fd5b6119d089828a01611932565b9650965050602087013567ffffffffffffffff8111156119ef57600080fd5b6119fb89828a01611932565b94509450506040611a0e89828a01611908565b9250506060611a1f89828a0161197c565b9150509295509295509295565b600060208284031215611a3e57600080fd5b6000611a4c8482850161197c565b91505092915050565b60008060408385031215611a6857600080fd5b6000611a768582860161197c565b9250506020611a878582860161191d565b9150509250929050565b60008060408385031215611aa457600080fd5b6000611ab28582860161197c565b9250506020611ac38582860161197c565b9150509250929050565b6000611ad98383611e4b565b60608301905092915050565b6000611af18383611e8d565b905092915050565b6000611b058383612105565b60208301905092915050565b611b1a8161239c565b82525050565b6000611b2b8261229e565b611b3581856122f1565b9350611b408361226e565b8060005b83811015611b71578151611b588882611acd565b9750611b63836122ca565b925050600181019050611b44565b5085935050505092915050565b6000611b89826122a9565b611b938185612302565b935083602082028501611ba58561227e565b8060005b85811015611be15784840389528151611bc28582611ae5565b9450611bcd836122d7565b925060208a01995050600181019050611ba9565b50829750879550505050505092915050565b6000611bfe826122b4565b611c088185612313565b9350611c138361228e565b8060005b83811015611c44578151611c2b8882611af9565b9750611c36836122e4565b925050600181019050611c17565b5085935050505092915050565b611c5a816123ae565b82525050565b6000611c6b826122bf565b611c758185612324565b9350611c858185602086016123f4565b611c8e81612500565b840191505092915050565b6000611ca6602683612335565b91507f54696d6520706572696f64206f6620746869732070726f706f73616c2069732060008301527f656e6465642e00000000000000000000000000000000000000000000000000006020830152604082019050919050565b6000611d0c603283612335565b91507f52657175697265642066756e647320617265206e6f74206d65742e20506c656160008301527f73652070726f76696465722066756e64732e00000000000000000000000000006020830152604082019050919050565b6000611d72601c83612335565b91507f52657175697265642066756e6473206172652070726f76696465642e000000006000830152602082019050919050565b6000611db2602a83612335565b91507f546869732070726f706f73616c206973206e6f742073656c656374656420666f60008301527f722066756e64696e672e000000000000000000000000000000000000000000006020830152604082019050919050565b6000611e18601783612335565b91507f596f752063616e206f6e6c7920766f7465206f6e63652e0000000000000000006000830152602082019050919050565b606082016000820151611e616000850182611b11565b506020820151611e746020850182612105565b506040820151611e876040850182612105565b50505050565b60006101c083016000830151611ea66000860182612105565b506020830151611eb96020860182612105565b506040830151611ecc6040860182612105565b506060830151611edf6060860182612105565b506080830151611ef26080860182612105565b5060a083015184820360a0860152611f0a8282611c60565b91505060c083015184820360c0860152611f248282611c60565b91505060e0830151611f3960e0860182611c51565b50610100830151611f4e610100860182611c51565b50610120830151611f63610120860182611c51565b50610140830151611f78610140860182611b11565b50610160830151611f8d610160860182611b11565b50610180830151611fa2610180860182612105565b506101a08301518482036101a0860152611fbc8282611b20565b9150508091505092915050565b60006101c083016000830151611fe26000860182612105565b506020830151611ff56020860182612105565b5060408301516120086040860182612105565b50606083015161201b6060860182612105565b50608083015161202e6080860182612105565b5060a083015184820360a08601526120468282611c60565b91505060c083015184820360c08601526120608282611c60565b91505060e083015161207560e0860182611c51565b5061010083015161208a610100860182611c51565b5061012083015161209f610120860182611c51565b506101408301516120b4610140860182611b11565b506101608301516120c9610160860182611b11565b506101808301516120de610180860182612105565b506101a08301518482036101a08601526120f88282611b20565b9150508091505092915050565b61210e816123da565b82525050565b61211d816123da565b82525050565b61212c816123e4565b82525050565b6000602082019050818103600083015261214c8184611b7e565b905092915050565b6000602082019050818103600083015261216e8184611bf3565b905092915050565b6000602082019050818103600083015261218f81611c99565b9050919050565b600060208201905081810360008301526121af81611cff565b9050919050565b600060208201905081810360008301526121cf81611d65565b9050919050565b600060208201905081810360008301526121ef81611da5565b9050919050565b6000602082019050818103600083015261220f81611e0b565b9050919050565b600060208201905081810360008301526122308184611fc9565b905092915050565b600060208201905061224d6000830184612114565b92915050565b60006020820190506122686000830184612123565b92915050565b6000819050602082019050919050565b6000819050602082019050919050565b6000819050602082019050919050565b600081519050919050565b600081519050919050565b600081519050919050565b600081519050919050565b6000602082019050919050565b6000602082019050919050565b6000602082019050919050565b600082825260208201905092915050565b600082825260208201905092915050565b600082825260208201905092915050565b600082825260208201905092915050565b600082825260208201905092915050565b6000612351826123da565b915061235c836123da565b9250827fffffffffffffffffffffffffffffffffffffffffffffffffffffffffffffffff03821115612391576123906124a2565b5b828201905092915050565b60006123a7826123ba565b9050919050565b60008115159050919050565b600073ffffffffffffffffffffffffffffffffffffffff82169050919050565b6000819050919050565b600063ffffffff82169050919050565b60005b838110156124125780820151818401526020810190506123f7565b83811115612421576000848401525b50505050565b6000600282049050600182168061243f57607f821691505b60208210811415612453576124526124d1565b5b50919050565b6000612464826123da565b91507fffffffffffffffffffffffffffffffffffffffffffffffffffffffffffffffff821415612497576124966124a2565b5b600182019050919050565b7f4e487b7100000000000000000000000000000000000000000000000000000000600052601160045260246000fd5b7f4e487b7100000000000000000000000000000000000000000000000000000000600052602260045260246000fd5b6000601f19601f8301169050919050565b61251a8161239c565b811461252557600080fd5b50565b612531816123ae565b811461253c57600080fd5b50565b612548816123da565b811461255357600080fd5b5056fea264697066735822122002d71c62d16656315ef688cf7ef0779215cded2673270a5f29d93569adb4d1a464736f6c63430008000033",
  "linkReferences": {},
  "deployedLinkReferences": {}
}